{
  "_format": "hh-sol-artifact-1",
  "contractName": "FarmFactory",
  "sourceName": "contracts/FarmFactory.sol",
  "abi": [
    {
      "inputs": [
        {
          "internalType": "uint256",
          "name": "_rewardPerBlock",
          "type": "uint256"
        },
        {
          "internalType": "uint256",
          "name": "_startBlock",
          "type": "uint256"
        }
      ],
      "stateMutability": "nonpayable",
      "type": "constructor"
    },
    {
      "anonymous": false,
      "inputs": [
        {
          "indexed": true,
          "internalType": "contract IFungibleToken",
          "name": "token",
          "type": "address"
        },
        {
          "indexed": false,
          "internalType": "uint256",
          "name": "allocPoint",
          "type": "uint256"
        }
      ],
      "name": "Add",
      "type": "event"
    },
    {
      "anonymous": false,
      "inputs": [
        {
          "indexed": true,
          "internalType": "address",
          "name": "user",
          "type": "address"
        },
        {
          "indexed": true,
          "internalType": "uint256",
          "name": "pid",
          "type": "uint256"
        },
        {
          "indexed": false,
          "internalType": "uint256",
          "name": "amount",
          "type": "uint256"
        }
      ],
      "name": "Deposit",
      "type": "event"
    },
    {
      "anonymous": false,
      "inputs": [
        {
          "indexed": true,
          "internalType": "address",
          "name": "previousOwner",
          "type": "address"
        },
        {
          "indexed": true,
          "internalType": "address",
          "name": "newOwner",
          "type": "address"
        }
      ],
      "name": "OwnershipTransferred",
      "type": "event"
    },
    {
      "anonymous": false,
      "inputs": [
        {
          "indexed": true,
          "internalType": "uint256",
          "name": "pid",
          "type": "uint256"
        },
        {
          "indexed": false,
          "internalType": "uint256",
          "name": "allocPoint",
          "type": "uint256"
        }
      ],
      "name": "Set",
      "type": "event"
    },
    {
      "anonymous": false,
      "inputs": [
        {
          "indexed": true,
          "internalType": "address",
          "name": "user",
          "type": "address"
        },
        {
          "indexed": true,
          "internalType": "uint256",
          "name": "pid",
          "type": "uint256"
        },
        {
          "indexed": false,
          "internalType": "uint256",
          "name": "amount",
          "type": "uint256"
        }
      ],
      "name": "Withdraw",
      "type": "event"
    },
    {
      "inputs": [
        {
          "internalType": "contract IFungibleToken",
          "name": "token",
          "type": "address"
        },
        {
          "internalType": "uint256",
          "name": "allocPoint",
          "type": "uint256"
        }
      ],
      "name": "add",
      "outputs": [],
      "stateMutability": "nonpayable",
      "type": "function"
    },
    {
      "inputs": [
        {
          "internalType": "uint256",
          "name": "pid",
          "type": "uint256"
        },
        {
          "internalType": "uint256",
          "name": "amount",
          "type": "uint256"
        }
      ],
      "name": "deposit",
      "outputs": [],
      "stateMutability": "nonpayable",
      "type": "function"
    },
    {
      "inputs": [
        {
          "internalType": "uint256",
          "name": "pid",
          "type": "uint256"
        },
        {
          "internalType": "uint256",
          "name": "amount",
          "type": "uint256"
        },
        {
          "internalType": "uint256",
          "name": "deadline",
          "type": "uint256"
        },
        {
          "internalType": "uint8",
          "name": "v",
          "type": "uint8"
        },
        {
          "internalType": "bytes32",
          "name": "r",
          "type": "bytes32"
        },
        {
          "internalType": "bytes32",
          "name": "s",
          "type": "bytes32"
        }
      ],
      "name": "depositWithPermit",
      "outputs": [],
      "stateMutability": "nonpayable",
      "type": "function"
    },
    {
      "inputs": [
        {
          "internalType": "uint256",
          "name": "pid",
          "type": "uint256"
        },
        {
          "internalType": "uint256",
          "name": "amount",
          "type": "uint256"
        },
        {
          "internalType": "uint256",
          "name": "deadline",
          "type": "uint256"
        },
        {
          "internalType": "uint8",
          "name": "v",
          "type": "uint8"
        },
        {
          "internalType": "bytes32",
          "name": "r",
          "type": "bytes32"
        },
        {
          "internalType": "bytes32",
          "name": "s",
          "type": "bytes32"
        }
      ],
      "name": "depositWithPermitMax",
      "outputs": [],
      "stateMutability": "nonpayable",
      "type": "function"
    },
    {
      "inputs": [],
      "name": "dubu",
      "outputs": [
        {
          "internalType": "contract IDubu",
          "name": "",
          "type": "address"
        }
      ],
      "stateMutability": "view",
      "type": "function"
    },
    {
      "inputs": [],
      "name": "owner",
      "outputs": [
        {
          "internalType": "address",
          "name": "",
          "type": "address"
        }
      ],
      "stateMutability": "view",
      "type": "function"
    },
    {
      "inputs": [],
      "name": "poolCount",
      "outputs": [
        {
          "internalType": "uint256",
          "name": "",
          "type": "uint256"
        }
      ],
      "stateMutability": "view",
      "type": "function"
    },
    {
      "inputs": [
        {
          "internalType": "uint256",
          "name": "",
          "type": "uint256"
        }
      ],
      "name": "poolInfo",
      "outputs": [
        {
          "internalType": "contract IFungibleToken",
          "name": "token",
          "type": "address"
        },
        {
          "internalType": "uint256",
          "name": "allocPoint",
          "type": "uint256"
        },
        {
          "internalType": "uint256",
          "name": "lastRewardBlock",
          "type": "uint256"
        },
        {
          "internalType": "uint256",
          "name": "accRewardPerShare",
          "type": "uint256"
        }
      ],
      "stateMutability": "view",
      "type": "function"
    },
    {
      "inputs": [],
      "name": "renounceOwnership",
      "outputs": [],
      "stateMutability": "nonpayable",
      "type": "function"
    },
    {
      "inputs": [],
      "name": "rewardPerBlock",
      "outputs": [
        {
          "internalType": "uint256",
          "name": "",
          "type": "uint256"
        }
      ],
      "stateMutability": "view",
      "type": "function"
    },
    {
      "inputs": [
        {
          "internalType": "uint256",
          "name": "pid",
          "type": "uint256"
        },
        {
          "internalType": "uint256",
          "name": "allocPoint",
          "type": "uint256"
        }
      ],
      "name": "set",
      "outputs": [],
      "stateMutability": "nonpayable",
      "type": "function"
    },
    {
      "inputs": [],
      "name": "startBlock",
      "outputs": [
        {
          "internalType": "uint256",
          "name": "",
          "type": "uint256"
        }
      ],
      "stateMutability": "view",
      "type": "function"
    },
    {
      "inputs": [],
      "name": "totalAllocPoint",
      "outputs": [
        {
          "internalType": "uint256",
          "name": "",
          "type": "uint256"
        }
      ],
      "stateMutability": "view",
      "type": "function"
    },
    {
      "inputs": [
        {
          "internalType": "address",
          "name": "newOwner",
          "type": "address"
        }
      ],
      "name": "transferOwnership",
      "outputs": [],
      "stateMutability": "nonpayable",
      "type": "function"
    },
    {
      "inputs": [
        {
          "internalType": "uint256",
          "name": "",
          "type": "uint256"
        },
        {
          "internalType": "address",
          "name": "",
          "type": "address"
        }
      ],
      "name": "userInfo",
      "outputs": [
        {
          "internalType": "uint256",
          "name": "amount",
          "type": "uint256"
        },
        {
          "internalType": "uint256",
          "name": "rewardDebt",
          "type": "uint256"
        }
      ],
      "stateMutability": "view",
      "type": "function"
    },
    {
      "inputs": [
        {
          "internalType": "uint256",
          "name": "pid",
          "type": "uint256"
        },
        {
          "internalType": "uint256",
          "name": "amount",
          "type": "uint256"
        }
      ],
      "name": "withdraw",
      "outputs": [],
      "stateMutability": "nonpayable",
      "type": "function"
    }
  ],
  "bytecode": "0x60e060405234801561001057600080fd5b506040516123f93803806123f983398101604081905261002f916100dc565b6100383361007f565b604051610044906100cf565b604051809103906000f080158015610060573d6000803e3d6000fd5b5060601b6001600160601b03191660805260a09190915260c052610100565b600080546001600160a01b038381166001600160a01b0319831681178455604051919092169283917f8be0079c531659141344cd1fd0a4f28419497f9722a3daafe3b4186f6b6457e09190a35050565b6110f48061130583390190565b600080604083850312156100ef57600080fd5b505080516020909101519092909150565b60805160601c60a05160c05161119b61016a6000396000818161018b0152818161095f01526109860152600081816101cd0152610b4501526000818161028601528181610b9201528181610c5401528181610d1501528181610dc70152610e70015261119b6000f3fe608060405234801561001057600080fd5b50600436106101005760003560e01c80638da5cb5b11610097578063ec3ea55711610066578063ec3ea55714610281578063f2fde38b146102a8578063f525cb68146102bb578063f5d82b6b146102c357600080fd5b80638da5cb5b146101ef57806393f1a40b14610214578063c92cbd5d1461025b578063e2bbb1581461026e57600080fd5b806348cd4cb1116100d357806348cd4cb114610186578063515bc323146101ad578063715018a6146101c05780638ae39cac146101c857600080fd5b80631526fe271461010557806317caf6f1146101475780631ab06ee51461015e578063441a3e7014610173575b600080fd5b610118610113366004610f61565b6102d6565b604080516001600160a01b03909516855260208501939093529183015260608201526080015b60405180910390f35b61015060035481565b60405190815260200161013e565b61017161016c366004610fc3565b61031a565b005b610171610181366004610fc3565b6103ff565b6101507f000000000000000000000000000000000000000000000000000000000000000081565b6101716101bb366004610fe5565b61058a565b610171610629565b6101507f000000000000000000000000000000000000000000000000000000000000000081565b6000546001600160a01b03165b6040516001600160a01b03909116815260200161013e565b610246610222366004610f93565b60026020908152600092835260408084209091529082529020805460019091015482565b6040805192835260208301919091520161013e565b610171610269366004610fe5565b61065f565b61017161027c366004610fc3565b6106bc565b6101fc7f000000000000000000000000000000000000000000000000000000000000000081565b6101716102b6366004610eef565b610855565b600154610150565b6101716102d1366004610f35565b6108f0565b600181815481106102e657600080fd5b600091825260209091206004909102018054600182015460028301546003909301546001600160a01b039092169350919084565b6000546001600160a01b0316331461034d5760405162461bcd60e51b81526004016103449061107f565b60405180910390fd5b610355610a40565b80600183815481106103695761036961113a565b906000526020600020906004020160010154600354610388919061110d565b61039291906110b4565b60038190555080600183815481106103ac576103ac61113a565b906000526020600020906004020160010181905550817f545b620a3000f6303b158b321f06b4e95e28a27d70aecac8c6bdac4f48a9f6b3826040516103f391815260200190565b60405180910390a25050565b6000600183815481106104145761041461113a565b6000918252602080832086845260028252604080852033865290925292206004909102909101915061044582610a8d565b60038201548154600183015460009068056bc75e2d6310000061046885856110ee565b61047291906110cc565b61047c919061110d565b9050801561048e5761048e3382610cfd565b85156105275761049e868361110d565b808555855460405163a9059cbb60e01b8152336004820152602481018990529193506001600160a01b03169063a9059cbb90604401602060405180830381600087803b1580156104ed57600080fd5b505af1158015610501573d6000803e3d6000fd5b505050506040513d601f19601f820116820180604052508101906105259190610f13565b505b68056bc75e2d6310000061053b84846110ee565b61054591906110cc565b6001850155604051868152879033907ff279e6a1f5e320cca91135676d9cb6e44ca8a08c0b88342bcdb1144f6511b5689060200160405180910390a350505050505050565b6001868154811061059d5761059d61113a565b600091825260209091206004918202015460405163d505accf60e01b81526001600160a01b039091169163d505accf916105e591339130918b918b918b918b918b910161103e565b600060405180830381600087803b1580156105ff57600080fd5b505af1158015610613573d6000803e3d6000fd5b5050505061062186866106bc565b505050505050565b6000546001600160a01b031633146106535760405162461bcd60e51b81526004016103449061107f565b61065d6000610e9f565b565b600186815481106106725761067261113a565b600091825260209091206004918202015460405163d505accf60e01b81526001600160a01b039091169163d505accf916105e59133913091600019918b918b918b918b910161103e565b6000600183815481106106d1576106d161113a565b6000918252602080832086845260028252604080852033865290925292206004909102909101915061070282610a8d565b60038201548154801561075357600183015460009068056bc75e2d6310000061072b85856110ee565b61073591906110cc565b61073f919061110d565b90508015610751576107513382610cfd565b505b84156107f35783546040516323b872dd60e01b8152336004820152306024820152604481018790526001600160a01b03909116906323b872dd90606401602060405180830381600087803b1580156107aa57600080fd5b505af11580156107be573d6000803e3d6000fd5b505050506040513d601f19601f820116820180604052508101906107e29190610f13565b506107ed85826110b4565b80845590505b68056bc75e2d6310000061080783836110ee565b61081191906110cc565b6001840155604051858152869033907f90890809c654f11d6e72a28fa60149770a0d11ec6c92319d6ceb2bb0a4ea1a159060200160405180910390a3505050505050565b6000546001600160a01b0316331461087f5760405162461bcd60e51b81526004016103449061107f565b6001600160a01b0381166108e45760405162461bcd60e51b815260206004820152602660248201527f4f776e61626c653a206e6577206f776e657220697320746865207a65726f206160448201526564647265737360d01b6064820152608401610344565b6108ed81610e9f565b50565b6000546001600160a01b0316331461091a5760405162461bcd60e51b81526004016103449061107f565b610922610a40565b806003600082825461093491906110b4565b9250508190555060016040518060800160405280846001600160a01b031681526020018381526020017f000000000000000000000000000000000000000000000000000000000000000043116109aa577f00000000000000000000000000000000000000000000000000000000000000006109ac565b435b81526000602091820181905283546001808201865594825290829020835160049092020180546001600160a01b0319166001600160a01b03928316178155838301519481019490945560408084015160028601556060909301516003909401939093559051838152918416917f2728c9d3205d667bbc0eefdfeda366261b4d021949630c047f3e5834b30611ab91016103f3565b60015460005b81811015610a8957610a7760018281548110610a6457610a6461113a565b9060005260206000209060040201610a8d565b610a826001826110b4565b9050610a46565b5050565b6002810154438110610a9d575050565b81546040516370a0823160e01b81523060048201526000916001600160a01b0316906370a082319060240160206040518083038186803b158015610ae057600080fd5b505afa158015610af4573d6000803e3d6000fd5b505050506040513d601f19601f82011682018060405250810190610b189190610f7a565b9050801580610b2957506001830154155b15610b3957505043600290910155565b600060035484600101547f00000000000000000000000000000000000000000000000000000000000000008543610b70919061110d565b610b7a91906110ee565b610b8491906110ee565b610b8e91906110cc565b90507f00000000000000000000000000000000000000000000000000000000000000006001600160a01b03166340c10f19610bd16000546001600160a01b031690565b610bdc600a856110cc565b6040516001600160e01b031960e085901b1681526001600160a01b0390921660048301526024820152604401600060405180830381600087803b158015610c2257600080fd5b505af1158015610c36573d6000803e3d6000fd5b50506040516340c10f1960e01b8152306004820152602481018490527f00000000000000000000000000000000000000000000000000000000000000006001600160a01b031692506340c10f199150604401600060405180830381600087803b158015610ca257600080fd5b505af1158015610cb6573d6000803e3d6000fd5b505050508168056bc75e2d6310000082610cd091906110ee565b610cda91906110cc565b8460030154610ce991906110b4565b600385015550504360029092019190915550565b6040516370a0823160e01b81523060048201526000907f00000000000000000000000000000000000000000000000000000000000000006001600160a01b0316906370a082319060240160206040518083038186803b158015610d5f57600080fd5b505afa158015610d73573d6000803e3d6000fd5b505050506040513d601f19601f82011682018060405250810190610d979190610f7a565b905080821115610e4a5760405163a9059cbb60e01b81526001600160a01b038481166004830152602482018390527f0000000000000000000000000000000000000000000000000000000000000000169063a9059cbb906044015b602060405180830381600087803b158015610e0c57600080fd5b505af1158015610e20573d6000803e3d6000fd5b505050506040513d601f19601f82011682018060405250810190610e449190610f13565b50505050565b60405163a9059cbb60e01b81526001600160a01b038481166004830152602482018490527f0000000000000000000000000000000000000000000000000000000000000000169063a9059cbb90604401610df2565b600080546001600160a01b038381166001600160a01b0319831681178455604051919092169283917f8be0079c531659141344cd1fd0a4f28419497f9722a3daafe3b4186f6b6457e09190a35050565b600060208284031215610f0157600080fd5b8135610f0c81611150565b9392505050565b600060208284031215610f2557600080fd5b81518015158114610f0c57600080fd5b60008060408385031215610f4857600080fd5b8235610f5381611150565b946020939093013593505050565b600060208284031215610f7357600080fd5b5035919050565b600060208284031215610f8c57600080fd5b5051919050565b60008060408385031215610fa657600080fd5b823591506020830135610fb881611150565b809150509250929050565b60008060408385031215610fd657600080fd5b50508035926020909101359150565b60008060008060008060c08789031215610ffe57600080fd5b863595506020870135945060408701359350606087013560ff8116811461102457600080fd5b9598949750929560808101359460a0909101359350915050565b6001600160a01b0397881681529590961660208601526040850193909352606084019190915260ff16608083015260a082015260c081019190915260e00190565b6020808252818101527f4f776e61626c653a2063616c6c6572206973206e6f7420746865206f776e6572604082015260600190565b600082198211156110c7576110c7611124565b500190565b6000826110e957634e487b7160e01b600052601260045260246000fd5b500490565b600081600019048311821515161561110857611108611124565b500290565b60008282101561111f5761111f611124565b500390565b634e487b7160e01b600052601160045260246000fd5b634e487b7160e01b600052603260045260246000fd5b6001600160a01b03811681146108ed57600080fdfea2646970667358221220801792052d166153c27a314d672618c474fccd2749ef560122289303ea4a5fd264736f6c6343000805003360a06040523480156200001157600080fd5b506040805180820182526004808252634475627560e01b602080840191825284518086018652928352634455425560e01b83820152845180860190955260018552603160f81b9085015282519293919284918491620000739160039162000134565b5080516200008990600490602084019062000134565b50508151620000a19150600590602084019062000134565b508251602080850191909120825183830120604080517f8b73c3c69bb8fe3d512ecc4cf759cc79239f7b179b0ffacaa9a75d522b39400f94810194909452830191909152606082015246608082018190523060a08301529060c00160408051601f1981840301815291905280516020909101206080525050600780546001600160a01b0319163317905550620002179050565b8280546200014290620001da565b90600052602060002090601f016020900481019282620001665760008555620001b1565b82601f106200018157805160ff1916838001178555620001b1565b82800160010185558215620001b1579182015b82811115620001b157825182559160200191906001019062000194565b50620001bf929150620001c3565b5090565b5b80821115620001bf5760008155600101620001c4565b600181811c90821680620001ef57607f821691505b602082108114156200021157634e487b7160e01b600052602260045260246000fd5b50919050565b608051610eba6200023a600039600081816101bc01526106390152610eba6000f3fe608060405234801561001057600080fd5b50600436106101165760003560e01c806354fd4d50116100a2578063a457c2d711610071578063a457c2d71461025f578063a9059cbb14610272578063c45a015514610285578063d505accf146102b0578063dd62ed3e146102c357600080fd5b806354fd4d501461020657806370a082311461020e5780637ecebe001461023757806395d89b411461025757600080fd5b806330adf81f116100e957806330adf81f14610181578063313ce567146101a85780633644e515146101b757806339509351146101de57806340c10f19146101f157600080fd5b806306fdde031461011b578063095ea7b31461013957806318160ddd1461015c57806323b872dd1461016e575b600080fd5b6101236102fc565b6040516101309190610df1565b60405180910390f35b61014c610147366004610d2f565b61038e565b6040519015158152602001610130565b6002545b604051908152602001610130565b61014c61017c366004610c80565b6103a4565b6101607f6e71edae12b1b97f4d1f60370fef10105fa2faae0126114a169c64845d6126c981565b60405160128152602001610130565b6101607f000000000000000000000000000000000000000000000000000000000000000081565b61014c6101ec366004610d2f565b6103fb565b6102046101ff366004610d2f565b610432565b005b610123610457565b61016061021c366004610c2b565b6001600160a01b031660009081526020819052604090205490565b610160610245366004610c2b565b60066020526000908152604090205481565b6101236104e5565b61014c61026d366004610d2f565b6104f4565b61014c610280366004610d2f565b610592565b600754610298906001600160a01b031681565b6040516001600160a01b039091168152602001610130565b6102046102be366004610cbc565b61059f565b6101606102d1366004610c4d565b6001600160a01b03918216600090815260016020908152604080832093909416825291909152205490565b60606003805461030b90610e33565b80601f016020809104026020016040519081016040528092919081815260200182805461033790610e33565b80156103845780601f1061035957610100808354040283529160200191610384565b820191906000526020600020905b81548152906001019060200180831161036757829003601f168201915b5050505050905090565b600061039b33848461083d565b50600192915050565b6001600160a01b038316600090815260016020908152604080832033845290915281205460001981146103e5576103e585336103e08685610e1c565b61083d565b6103f0858585610961565b506001949350505050565b3360008181526001602090815260408083206001600160a01b0387168452909152812054909161039b9185906103e0908690610e04565b6007546001600160a01b0316331461044957600080fd5b6104538282610b30565b5050565b6005805461046490610e33565b80601f016020809104026020016040519081016040528092919081815260200182805461049090610e33565b80156104dd5780601f106104b2576101008083540402835291602001916104dd565b820191906000526020600020905b8154815290600101906020018083116104c057829003601f168201915b505050505081565b60606004805461030b90610e33565b3360009081526001602090815260408083206001600160a01b03861684529091528120548281101561057b5760405162461bcd60e51b815260206004820152602560248201527f45524332303a2064656372656173656420616c6c6f77616e63652062656c6f77604482015264207a65726f60d81b60648201526084015b60405180910390fd5b610588338585840361083d565b5060019392505050565b600061039b338484610961565b834211156105ac57600080fd5b6001600160a01b038781166000818152600660208181526040808420805482517f6e71edae12b1b97f4d1f60370fef10105fa2faae0126114a169c64845d6126c981860152808401889052978e166060890152608088018d905260a0880181905260c08089018d90528351808a03909101815260e08901845280519085012061190160f01b6101008a01527f00000000000000000000000000000000000000000000000000000000000000006101028a0152610122808a01919091528351808a039091018152610142909801909252865196830196909620948452919052919260019290919061069d908490610e04565b90915550506001600160a01b0387811690891614156106bb57600080fd5b873b1561079457604080516020810185905280820184905260f886901b6001600160f81b0319166060820152815160418183030181526061820192839052630b135d3f60e11b9092526001600160a01b038a1691631626ba7e91610723918591606501610dd0565b60206040518083038186803b15801561073b57600080fd5b505afa15801561074f573d6000803e3d6000fd5b505050506040513d601f19601f820116820180604052508101906107739190610d59565b6001600160e01b031916631626ba7e60e01b1461078f57600080fd5b610828565b6040805160008082526020820180845284905260ff871692820192909252606081018590526080810184905260019060a0016020604051602081039080840390855afa1580156107e8573d6000803e3d6000fd5b5050604051601f1901519150506001600160a01b03811661080857600080fd5b886001600160a01b0316816001600160a01b03161461082657600080fd5b505b61083388888861083d565b5050505050505050565b6001600160a01b03831661089f5760405162461bcd60e51b8152602060048201526024808201527f45524332303a20617070726f76652066726f6d20746865207a65726f206164646044820152637265737360e01b6064820152608401610572565b6001600160a01b0382166109005760405162461bcd60e51b815260206004820152602260248201527f45524332303a20617070726f766520746f20746865207a65726f206164647265604482015261737360f01b6064820152608401610572565b6001600160a01b0383811660008181526001602090815260408083209487168084529482529182902085905590518481527f8c5be1e5ebec7d5bd14f71427d1e84f3dd0314c0f7b2291e5b200ac8c7c3b925910160405180910390a3505050565b6001600160a01b0383166109c55760405162461bcd60e51b815260206004820152602560248201527f45524332303a207472616e736665722066726f6d20746865207a65726f206164604482015264647265737360d81b6064820152608401610572565b6001600160a01b038216610a275760405162461bcd60e51b815260206004820152602360248201527f45524332303a207472616e7366657220746f20746865207a65726f206164647260448201526265737360e81b6064820152608401610572565b6001600160a01b03831660009081526020819052604090205481811015610a9f5760405162461bcd60e51b815260206004820152602660248201527f45524332303a207472616e7366657220616d6f756e7420657863656564732062604482015265616c616e636560d01b6064820152608401610572565b6001600160a01b03808516600090815260208190526040808220858503905591851681529081208054849290610ad6908490610e04565b92505081905550826001600160a01b0316846001600160a01b03167fddf252ad1be2c89b69c2b068fc378daa952ba7f163c4a11628f55a4df523b3ef84604051610b2291815260200190565b60405180910390a350505050565b6001600160a01b038216610b865760405162461bcd60e51b815260206004820152601f60248201527f45524332303a206d696e7420746f20746865207a65726f2061646472657373006044820152606401610572565b8060026000828254610b989190610e04565b90915550506001600160a01b03821660009081526020819052604081208054839290610bc5908490610e04565b90915550506040518181526001600160a01b038316906000907fddf252ad1be2c89b69c2b068fc378daa952ba7f163c4a11628f55a4df523b3ef9060200160405180910390a35050565b80356001600160a01b0381168114610c2657600080fd5b919050565b600060208284031215610c3d57600080fd5b610c4682610c0f565b9392505050565b60008060408385031215610c6057600080fd5b610c6983610c0f565b9150610c7760208401610c0f565b90509250929050565b600080600060608486031215610c9557600080fd5b610c9e84610c0f565b9250610cac60208501610c0f565b9150604084013590509250925092565b600080600080600080600060e0888a031215610cd757600080fd5b610ce088610c0f565b9650610cee60208901610c0f565b95506040880135945060608801359350608088013560ff81168114610d1257600080fd5b9699959850939692959460a0840135945060c09093013592915050565b60008060408385031215610d4257600080fd5b610d4b83610c0f565b946020939093013593505050565b600060208284031215610d6b57600080fd5b81516001600160e01b031981168114610c4657600080fd5b6000815180845260005b81811015610da957602081850181015186830182015201610d8d565b81811115610dbb576000602083870101525b50601f01601f19169290920160200192915050565b828152604060208201526000610de96040830184610d83565b949350505050565b602081526000610c466020830184610d83565b60008219821115610e1757610e17610e6e565b500190565b600082821015610e2e57610e2e610e6e565b500390565b600181811c90821680610e4757607f821691505b60208210811415610e6857634e487b7160e01b600052602260045260246000fd5b50919050565b634e487b7160e01b600052601160045260246000fdfea2646970667358221220f5fa76101ef2275f3ec8ccc00ae7aaa7212f19db37a67fc46caa4c177159bac764736f6c63430008050033",
  "linkReferences": {},
  "deployedLinkReferences": {}
}